:100000000C9477000C942B010C942B010C942B0175
:100010000C942B010C942B010C942B010C942B01B0
:100020000C942B010C942B010C942B010C942B01A0
:100030000C942B010C942B010C942B010C942B0190
:100040000C942B010C942B010C942B010C942B0180
:100050000C942B010C942B010C942B010C942B0170
:100060000C942B010C942B010C942B010C942B0160
:100070000C942B010C942B010C942B010C942B0150
:100080000C942B010C942B010C942B010C942B0140
:100090000C942B010C942B010C942B010C942B0130
:1000A0000C942B010C942B010C942B010C942B0120
:1000B0000C942B010C942B010C942B010C942B0110
:1000C0000C942B010C942B010C942B010C942B0100
:1000D0000C942B010C942B010C942B010C942B01F0
:1000E0000C942B010C942B01400040028000112441
:1000F0001FBECFEFCDBFDFE7DEBFE8EEF0E040E0B0
:1001000019C0B791A79137912791079107FD0EC0AC
:1001100097918791EF01F92FE82F0BBF07900D9270
:10012000A217B307D9F7FE011BBE04C01D92A21788
:10013000B307E1F7ED3EF40721F70E94A3000C940A
:06014000A100F894FFCFBE
:100146000E94E40081E080930A066894EE24E6F8B3
:10015600FF24F2F810E4C0E0D6E002E00E94260197
:10016600882321F0F70117830D8702C0F701158355
:1001760088899989809300409093014083E00E948A
:10018600120180910040909101400E9412018091DD
:10019600004090910140892F0E9412018CEF0E942D
:0401A6001201DCCF97
:1001AA0081E080934104E0E6F4E08389887F838BD1
:0E01BA0083898460838B8389877F838B08957C
:1001C8000E940A010E94D50081E08093A0000E944D
:0C01D800F2000E94FF000E941A0108952E
:1001E400E0E0F6E081E0828393E09083908720E072
:0A01F40031E0228B338B84830895E1
:1001FE00E0E2F8E08BE890E08087918780E48683E8
:06020E0083E087830895E0
:10021400609168006C6088E690E00E942001089577
:10022400E0E2F8E0948195FFFDCF809322080895E1
:0C023400E0E4F4E080E485838183089519
:0C024000DC0128ED209334006C9308953D
:0A024C0080910D06869581700895DB
:040256000C94000004
:00000001FF
